S123F0008E0080BDF0478600BDF052BDF318CEF3B2BDF064BDF369CEF3C6BDF064BDF03883
S123F020BDF047CEF49EBDF064BDF080BDF0CC810027EDBDF10220E836B6102E842027057A
S123F040B6102F20F43239368600B7D004B7D0033239368630B7102B8600B7102C860CB75C
S123F060102D32393C37E6002706BDF0730820F633383936B6102E848027F9F7102F32398D
S123F08036373CBDF0BA81082721810D260486002006810A26028600CED004F6D0033AA7A2
S123F0A0005CF7D003810026DA200BB6D00327D34AB7D00320CD3833323937B6102E842091
S123F0C027F9B6102F3633BDF0733339373C183CC601CED00418CEF404BDF2CD81002711DF
S123F0E05C180818A60026F9180818A600270620E837322008CEF48ABDF0648600183838A4
S123F100333936373C8101272481022725810327268104272781052728810627298107273B
S123F1202D81082731CEF48ABDF0642031BDF162202CBDF2672027BDF1F12022BDF2622044
S123F1401DBDF0002018CEF505BDF0642010CEF505BDF0642008CEF60CBDF0642000383333
S123F160323936373C183CCEF4ADBDF064CEF4DBBDF2FCBDF369BDF047BDF080CED0041867
S123F180CEF3FEBDF2CD8100271618CEF401BDF2CD81002736CEF4F5BDF2FCBDF369204B57
S123F1A0C6023ABDF2328003080836BDF232160808BDF23236371838330808BDF23218A717
S123F1C00008081808C00126F220ABCEF4EABDF2FCBDF369CED00408080808BDF232160826
S123F1E008BDF2323637183818AD0018383833323936373C183CBDF038CEF443BDF064BDC5
S123F200F047BDF080BDF2B8CED004A600270ABDF23218A700183A20E6183838333239CEBA
S123F220D00439CED0033981612506817A22028020393CA600BDF227814125048037200262
S123F2408030840F48484848B7D00008A600BDF22781412504803720028030840FBAD000AB
S123F26038393CAD00383936373C3CCEF42EBDF0648600B7D00038CED1008600E600BDF2DA
S123F280ADBDF2C5084C811026F2BDF2B8BBD000B7D00081A025E33833323954545454C4C0
S123F2A00FCB30C1392F02CB07BDF073393737BDF29B33BDF29F333937C60DBDF073C60A4B
S123F2C0BDF073333937C620BDF0733339373C183CC600A6008100270B18A10026065C08C6
S123F2E0180820EFA600270918A600270486012006C10027F886001838383339368601B7A1
S123F300C000BDF38C32393CCE01482003CE014C0926FD4A26F7383936860FBDF3078638AD
S123F320B7C0008605BDF3078638B7C0008601BDF3078638B7C000BDF38C8638B7C000BD3A
S123F340F38C860CB7C000BDF38C8601B7C0008602BDF307BDF38C8606B7C000BDF38C86A7
S123F36080B7C000BDF38C32393C37E6002706BDF3780820F633383937C10D270DC10A2750
S123F38009BDF38CF7C001BDF38C333936B6C000848026F9323936373C183CCEF7773633E8
S123F3A0583A1AEE0018FFD0011838383332BDD0013B0D0A36384D4943524F2056657220A5
S123F3C0302E330D0A00436F707972696768742028632920323031312C204A6566662047E2
S123F3E06C61756D2E2020416C6C207269676874732072657365727665642E0D0A005331D9
S123F40000533900737265630064756D7000656E74657200676F007265736574003F00683B
S123F420656C700062696F7372746E7300000D0A4D656D6F727920636F6E74656E74733ABB
S123F4400D0A000D0A456E7465722065616368206279746520666F6C6C6F77656420627980
S123F4602072657475726E2E2020546F2066696E6973682070726573732072657475726EE9
S123F4802074776963652E0D0A000D0A496E76616C696420636F6D6D616E640D0A003E2095
S123F4A000596F752074797065643A20000D0A526561647920746F20726563656976652039
S123F4C0532D5265636F726420646174612066726F6D20686F73742E2E2E00446F776E6C4F
S123F4E06F6164696E672E2E2E004A756D70696E672E2E2E00532D5265636F7264204572F2
S123F500726F7221000D0A436F6D6D616E64733A0D0A7372656320202020202D205765651E
S123F5207A6572207265636569766573202620657865637574657320532D5265636F726435
S123F54020636F64650D0A64756D7020202020202D2064756D707320636F6E74656E74737B
S123F560206F662072656365697665206275666665720D0A656E746572202020202D20658E
S123F5806E7465727320636F6E74656E7473206F662072656365697665206275666665721B
S123F5A00D0A676F202020202020202D20657865637574657320636F6E74656E7473206FAA
S123F5C0662072656365697665206275666665720D0A7265736574202020202D20726573D3
S123F5E06574732073797374656D0D0A3F2F68656C702020202D20646973706C6179732092
S123F6007468697320746578740D0A000D0A313A20534552434C52494E5055540D0A323AB2
S123F62020434C52494E535452494E470D0A333A2053455249414C5F494E49540D0A343ADB
S123F6402053455257524954455354520D0A353A2053455257524954454348520D0A363A99
S123F66020534552524541445354520D0A373A20534552524541444348520D0A383A2050E3
S123F68041525345434D445354520D0A393A2045584543555445434D440D0A413A20454E98
S123F6A05445524D454D0D0A423A205550434153450D0A433A204153434949324845580DC7
S123F6C00A443A2044554D504D454D0D0A453A20534552505254425954450D0A463A205395
S123F6E0455250525443520D0A31303A2053455250525453504143450D0A31313A2053544C
S123F70052434D500D0A31323A204C43445F494E49540D0A31333A204C43445F434C45415D
S123F720520D0A31343A204C434457524954455354520D0A31353A204C4344575249544511
S123F7404348520D0A31363A204C43445F574149540D0A31373A20494E425546464144442D
S123F760520D0A31383A20494E425546464C454E414444520D0A000000F038F047F052F0FD
S123F78064F073F080F0BAF0CCF102F1F1F227F232F267F2ADF2B8F2C5F2CDF318F2FCF3B2
S10CF7A069F378F38CF21FF223E3
S105FFF6F3967C
S105FFFEF0000D
S9030000FC
