S123F0008E0080BDF04CBDF415CEF4A3BDF05EBDF466CEF4B7BDF05EBDF0340ECEF5B8BDED
S123F020F05EBDF043BDF07ABDF0F0810027EDBDF12F20E836B6102E84202705B6102F2041
S123F040F43239368600979097E03239368630B7102B8600B7102C860CB7102D32393C37CD
S123F060E6002706BDF06D0820F633383936B6102E848027F9F7102F323936373CBDF0D385
S123F0808108271F810D260486002006810A26028600CE0090D6E03AA7005CD7E081002651
S123F0A0DC200996E027D64A97E020D13833323936373CCE0090C1002711BDF0E5810A2708
S123F0C0F5810D27F1A700085A20EB8600A7003833323937B6102E842027F9B6102F36332D
S123F0E0BDF06D3339B6102E842027F9B6102F39373C183CBDF3B5C601CE0090A600810028
S123F100272818CEF4F5BDF3CA810027115C180818A60026F9180818A600270620E83732C5
S123F1202008CEF5A6BDF05E8600183838333936373C81012728810227298103272A81040E
S123F140272B8105272C8106272D81072731810827328109272FCEF5A6BDF05E202DBDF392
S123F160452028BDF2262023BDF2AE201EBDF18F2019BDF0002014CEF757BDF05E200CBDE4
S123F180F2D4200701CEF610BDF05E3833323936373C183CCEF5BBBDF05EC602BDF0B0CE4F
S123F1A0009018CEF4EFBDF3CA8100271918CEF4F2BDF3CA81002713CEF600BDF3F9BDF498
S123F1C066BDF05E205A8601362003860236C602BDF0B0BDF28036C604BDF0B0BDF28016AC
S123F1E00808BDF2803637183818DFE2335A5A5AC10027163758BDF0B033CE0090BDF2804B
S123F20018A700080818085A26F3C602BDF0B03281012786CEF5E9BDF05E18DEE218AD00AE
S123F22018383833323936373C183CCEF5F6BDF05EBDF043BDF07ACE0090BDF28016080819
S123F240BDF28036371838CEF561BDF05EBDF043BDF07ABDF3B5CE0090A600270ABDF280AF
S123F26018A700180820E6183838333239CE009039CE00E03981612506817A2202802039FC
S123F2803CA600BDF27581412504803720028030840F4848484897E108A600BDF275814131
S123F2A02504803720028030840F9AE1383936373CCEF5F6BDF05EBDF043BDF07ACE009037
S123F2C0BDF280160808BDF2803637183838333218AD003936373C183C3CCEF536BDF05E11
S123F2E0CEF545BDF05EBDF3C23716BDF39EBDF3B5CEF549BDF05EBDF3C233BDF39EBDF3CB
S123F300B5CEF54DBDF05E3233BDF3A9BDF3B5183CCEF552BDF05E3233BDF3A9BDF3B5CE91
S123F320F557BDF05E308FBDF3A9BDF3B58FCEF55CBDF05E0716BDF39EBDF3B5BDF3B518EF
S123F340383833323936373CCEF5F6BDF05EBDF043BDF07ACE0090BDF280160808BDF28035
S123F3603637CEF51FBDF05E860097E1388600E600BDF39EBDF3C2084C811026F2BDF3B56B
S123F3809BE197E181A025E53833323954545454C40FCB30C1392F02CB07BDF06D39373798
S123F3A0BDF38C33BDF3903339363716BDF39E33BDF39E323937C60DBDF06DC60ABDF06D63
S123F3C0333937C620BDF06D3339373C183CC600A6008100270B18A10026065C08180820AB
S123F3E0EFA600270918A600270486012006C10027F886001838383339368601B7C000BD63
S123F400F48632393CCE01482003CE014C0926FD4A26F7383936860FBDF4048638B7C000B9
S123F4208605BDF4048638B7C0008601BDF4048638B7C000BDF4868638B7C000BDF48686B9
S123F4400CB7C000BDF4868601B7C0008602BDF404BDF4868606B7C000BDF4868680B7C0C5
S123F46000BDF48632393C37E6002706BDF4750820F633383937C10D270AC10A2706F7C093
S123F48001BDF486333936B6C000848026F9323936373CCEF8A416583A1AEE003833321812
S123F4A0AD003B0D0A36384D4943524F2056657220302E360D0A00436F7079726967687490
S123F4C02028632920323032362C204A65666620476C61756D2E2020416C6C20726967683C
S123F4E074732072657365727665642E0D0A0053310053390064756D7000656E7465720078
S123F500676F00737265630072657365740061706900726567730068656C70003F00000D61
S123F5200A4D656D6F727920636F6E74656E74733A0D0A0D0A005265676973746572733A5C
S123F5400D0A0D0A00413A2000423A200049583A200049593A200053503A200043433A206E
S123F560000D0A496E7075742065616368206279746520666F6C6C6F7765642062792065DF
S123F5806E7465722E2020546F2066696E69736820707265737320656E74657220747769DD
S123F5A063652E0D0A00496E76616C696420636F6D6D616E640D0A003E200052656164790A
S123F5C020746F207265636569766520732D7265636F726420646174612066726F6D2068CC
S123F5E06F73742E2E2E0D0A004A756D70696E672E2E2E0D0A00416464726573733A200075
S123F600532D7265636F7264206572726F7221000D0A436F6D6D616E64733A0D0A2D2D2D5B
S123F6202D2D2D2D2D2D2D2D2D2D2D2D2D2D2D2D2D2D2D2D2D2D2D2D2D2D2D2D2D2D2D2D26
S123F6402D2D2D2D2D2D2D2D2D2D2D0D0A64756D7020202020202D20646973706C617920E7
S123F66074686520636F6E74656E7473206F66206D656D6F72790D0A656E74657220202074
S123F680202D207772697465206461746120746F206D656D6F72790D0A676F2020202020CB
S123F6A020202D206578656375746520636F646520696E206D656D6F72790D0A7372656397
S123F6C020202020202D20646F776E6C6F61642026206578656375746520732D7265636F1F
S123F6E072642066696C650D0A6170692020202020202D20646973706C6179207075626C49
S123F7006963206D6F6E69746F7220726F7574696E65730D0A7265677320202020202D20A3
S123F720646973706C61792072656769737465722076616C7565730D0A7265736574202020
S123F74020202D207265736574207468652073797374656D0D0A000D0A30313A204153430F
S123F7604949324845580D0A30323A20434C454152494E5055540D0A30333A2044454C4128
S123F780595F4D530D0A30343A204C4344434C4541520D0A30353A204C4344494E49540D14
S123F7A00A30363A204C4344574149540D0A30373A204C43445752495445430D0A30383A41
S123F7C0204C43445752495445530D0A30393A204F55544C454654480D0A30413A204F5589
S123F7E0545249474854480D0A30423A20534552434C4541520D0A30433A20534552494E52
S123F80049540D0A30443A20534552505254425954450D0A30453A205345525052544352F3
S123F8200D0A30463A205345525052545350430D0A31303A2053455252454144430D0A31B4
S123F840313A205345525245414443780D0A31323A20534552524541445241570D0A313319
S123F8603A2053455252454144530D0A31343A205345525752495445430D0A31353A205319
S123F88045525752495445530D0A31363A20535452434D500D0A31373A20544F5550504588
S123F8A0520D0A000000F280F043F404F3F9F415F486F475F466F38CF390F034F04CF39E19
S117F8C0F3B5F3C2F0D3F0E5F0B0F07AF06DF05EF3CAF27562
S105FFF6F49081
S105FFFEF0000D
S90300906C
